{
  "_format": "hh-sol-artifact-1",
  "contractName": "CollectionFactory",
  "sourceName": "contracts/CollectionFactory.sol",
  "abi": [
    {
      "anonymous": false,
      "inputs": [
        {
          "indexed": false,
          "internalType": "address",
          "name": "_address",
          "type": "address"
        },
        {
          "indexed": false,
          "internalType": "address",
          "name": "user",
          "type": "address"
        }
      ],
      "name": "CollectionCreated",
      "type": "event"
    },
    {
      "inputs": [
        {
          "internalType": "string",
          "name": "name",
          "type": "string"
        },
        {
          "internalType": "string",
          "name": "symbol",
          "type": "string"
        },
        {
          "internalType": "uint16",
          "name": "maxUserLimit",
          "type": "uint16"
        },
        {
          "internalType": "uint16",
          "name": "maxSupply",
          "type": "uint16"
        },
        {
          "internalType": "uint256",
          "name": "tokenPrice",
          "type": "uint256"
        },
        {
          "internalType": "string",
          "name": "baseMetdataURI",
          "type": "string"
        }
      ],
      "name": "createCollection",
      "outputs": [],
      "stateMutability": "payable",
      "type": "function"
    },
    {
      "inputs": [
        {
          "internalType": "address",
          "name": "",
          "type": "address"
        },
        {
          "internalType": "uint256",
          "name": "",
          "type": "uint256"
        }
      ],
      "name": "createdCollections",
      "outputs": [
        {
          "internalType": "address",
          "name": "",
          "type": "address"
        }
      ],
      "stateMutability": "view",
      "type": "function"
    },
    {
      "inputs": [
        {
          "internalType": "address",
          "name": "user",
          "type": "address"
        }
      ],
      "name": "getUserCollections",
      "outputs": [
        {
          "internalType": "address[]",
          "name": "collections",
          "type": "address[]"
        }
      ],
      "stateMutability": "view",
      "type": "function"
    }
  ],
  "bytecode": "0x608060405234801561001057600080fd5b50613612806100206000396000f3fe608060405260043610620000385760003560e01c80637f1c1f2f146200003d5780639aa5ad8c146200005d578063c217ebd514620000a1575b600080fd5b6200005b6004803603810190620000559190620004aa565b620000e5565b005b3480156200006a57600080fd5b5062000089600480360381019062000083919062000616565b6200028d565b60405162000098919062000716565b60405180910390f35b348015620000ae57600080fd5b50620000cd6004803603810190620000c791906200073a565b6200035b565b604051620000dc919062000792565b60405180910390f35b6000898989898989898989604051620000fe90620003aa565b620001129998979695949392919062000835565b604051809103906000f0801580156200012f573d6000803e3d6000fd5b5090508073ffffffffffffffffffffffffffffffffffffffff1663f2fde38b336040518263ffffffff1660e01b81526004016200016d919062000792565b600060405180830381600087803b1580156200018857600080fd5b505af11580156200019d573d6000803e3d6000fd5b5050505060008190506000803373ffffffffffffffffffffffffffffffffffffffff1673ffffffffffffffffffffffffffffffffffffffff168152602001908152602001600020819080600181540180825580915050600190039060005260206000200160009091909190916101000a81548173ffffffffffffffffffffffffffffffffffffffff021916908373ffffffffffffffffffffffffffffffffffffffff1602179055507f5d0de243db1669e3a7056744cd715c625f0c1c348736c2c2d53d0ddebff1a6c7813360405162000278929190620008bd565b60405180910390a15050505050505050505050565b60606000808373ffffffffffffffffffffffffffffffffffffffff1673ffffffffffffffffffffffffffffffffffffffff1681526020019081526020016000208054806020026020016040519081016040528092919081815260200182805480156200034f57602002820191906000526020600020905b8160009054906101000a900473ffffffffffffffffffffffffffffffffffffffff1673ffffffffffffffffffffffffffffffffffffffff168152602001906001019080831162000304575b50505050509050919050565b600060205281600052604060002081815481106200037857600080fd5b906000526020600020016000915091509054906101000a900473ffffffffffffffffffffffffffffffffffffffff1681565b612cf280620008eb83390190565b600080fd5b600080fd5b600080fd5b600080fd5b600080fd5b60008083601f840112620003ea57620003e9620003c2565b5b8235905067ffffffffffffffff8111156200040a5762000409620003c7565b5b602083019150836001820283011115620004295762000428620003cc565b5b9250929050565b600061ffff82169050919050565b620004498162000430565b81146200045557600080fd5b50565b60008135905062000469816200043e565b92915050565b6000819050919050565b62000484816200046f565b81146200049057600080fd5b50565b600081359050620004a48162000479565b92915050565b600080600080600080600080600060c08a8c031215620004cf57620004ce620003b8565b5b60008a013567ffffffffffffffff811115620004f057620004ef620003bd565b5b620004fe8c828d01620003d1565b995099505060208a013567ffffffffffffffff811115620005245762000523620003bd565b5b620005328c828d01620003d1565b97509750506040620005478c828d0162000458565b95505060606200055a8c828d0162000458565b94505060806200056d8c828d0162000493565b93505060a08a013567ffffffffffffffff811115620005915762000590620003bd565b5b6200059f8c828d01620003d1565b92509250509295985092959850929598565b600073ffffffffffffffffffffffffffffffffffffffff82169050919050565b6000620005de82620005b1565b9050919050565b620005f081620005d1565b8114620005fc57600080fd5b50565b6000813590506200061081620005e5565b92915050565b6000602082840312156200062f576200062e620003b8565b5b60006200063f84828501620005ff565b91505092915050565b600081519050919050565b600082825260208201905092915050565b6000819050602082019050919050565b6200067f81620005d1565b82525050565b600062000693838362000674565b60208301905092915050565b6000602082019050919050565b6000620006b98262000648565b620006c5818562000653565b9350620006d28362000664565b8060005b8381101562000709578151620006ed888262000685565b9750620006fa836200069f565b925050600181019050620006d6565b5085935050505092915050565b60006020820190508181036000830152620007328184620006ac565b905092915050565b60008060408385031215620007545762000753620003b8565b5b60006200076485828601620005ff565b9250506020620007778582860162000493565b9150509250929050565b6200078c81620005d1565b82525050565b6000602082019050620007a9600083018462000781565b92915050565b600082825260208201905092915050565b82818337600083830152505050565b6000601f19601f8301169050919050565b6000620007ee8385620007af565b9350620007fd838584620007c0565b6200080883620007cf565b840190509392505050565b6200081e8162000430565b82525050565b6200082f816200046f565b82525050565b600060c082019050818103600083015262000852818b8d620007e0565b905081810360208301526200086981898b620007e0565b90506200087a604083018862000813565b62000889606083018762000813565b62000898608083018662000824565b81810360a0830152620008ad818486620007e0565b90509a9950505050505050505050565b6000604082019050620008d4600083018562000781565b620008e3602083018462000781565b939250505056fe60806040523480156200001157600080fd5b5060405162002cf238038062002cf28339818101604052810190620000379190620004a3565b8585816002908051906020019062000051929190620001dc565b5080600390805190602001906200006a929190620001dc565b506200007b6200010960201b60201c565b6000819055505050620000a3620000976200010e60201b60201c565b6200011660201b60201c565b83600860146101000a81548161ffff021916908361ffff16021790555082600860166101000a81548161ffff021916908361ffff1602179055508160098190555080600a9080519060200190620000fc929190620001dc565b5050505050505062000601565b600090565b600033905090565b6000600860009054906101000a900473ffffffffffffffffffffffffffffffffffffffff16905081600860006101000a81548173ffffffffffffffffffffffffffffffffffffffff021916908373ffffffffffffffffffffffffffffffffffffffff1602179055508173ffffffffffffffffffffffffffffffffffffffff168173ffffffffffffffffffffffffffffffffffffffff167f8be0079c531659141344cd1fd0a4f28419497f9722a3daafe3b4186f6b6457e060405160405180910390a35050565b828054620001ea90620005cb565b90600052602060002090601f0160209004810192826200020e57600085556200025a565b82601f106200022957805160ff19168380011785556200025a565b828001600101855582156200025a579182015b82811115620002595782518255916020019190600101906200023c565b5b5090506200026991906200026d565b5090565b5b80821115620002885760008160009055506001016200026e565b5090565b6000604051905090565b600080fd5b600080fd5b600080fd5b600080fd5b6000601f19601f8301169050919050565b7f4e487b7100000000000000000000000000000000000000000000000000000000600052604160045260246000fd5b620002f582620002aa565b810181811067ffffffffffffffff82111715620003175762000316620002bb565b5b80604052505050565b60006200032c6200028c565b90506200033a8282620002ea565b919050565b600067ffffffffffffffff8211156200035d576200035c620002bb565b5b6200036882620002aa565b9050602081019050919050565b60005b838110156200039557808201518184015260208101905062000378565b83811115620003a5576000848401525b50505050565b6000620003c2620003bc846200033f565b62000320565b905082815260208101848484011115620003e157620003e0620002a5565b5b620003ee84828562000375565b509392505050565b600082601f8301126200040e576200040d620002a0565b5b815162000420848260208601620003ab565b91505092915050565b600061ffff82169050919050565b620004428162000429565b81146200044e57600080fd5b50565b600081519050620004628162000437565b92915050565b6000819050919050565b6200047d8162000468565b81146200048957600080fd5b50565b6000815190506200049d8162000472565b92915050565b60008060008060008060c08789031215620004c357620004c262000296565b5b600087015167ffffffffffffffff811115620004e457620004e36200029b565b5b620004f289828a01620003f6565b965050602087015167ffffffffffffffff8111156200051657620005156200029b565b5b6200052489828a01620003f6565b95505060406200053789828a0162000451565b94505060606200054a89828a0162000451565b93505060806200055d89828a016200048c565b92505060a087015167ffffffffffffffff8111156200058157620005806200029b565b5b6200058f89828a01620003f6565b9150509295509295509295565b7f4e487b7100000000000000000000000000000000000000000000000000000000600052602260045260246000fd5b60006002820490506001821680620005e457607f821691505b60208210811415620005fb57620005fa6200059c565b5b50919050565b6126e180620006116000396000f3fe60806040526004361061014b5760003560e01c8063715018a6116100b6578063b88d4fde1161006f578063b88d4fde14610452578063c87b56dd1461047b578063d2d8cb67146104b8578063dc33e681146104e3578063e985e9c514610520578063f2fde38b1461055d5761014b565b8063715018a6146103665780638da5cb5b1461037d57806395d89b41146103a8578063a22cb465146103d3578063a2309ff8146103fc578063af24c46f146104275761014b565b806323cf0a221161010857806323cf0a221461027257806332cb6b0c1461028e5780633ccfd60b146102b957806342842e0e146102c35780636352211e146102ec57806370a08231146103295761014b565b806301ffc9a71461015057806306fdde031461018d578063081812fc146101b8578063095ea7b3146101f557806318160ddd1461021e57806323b872dd14610249575b600080fd5b34801561015c57600080fd5b5061017760048036038101906101729190611b92565b610586565b6040516101849190611bda565b60405180910390f35b34801561019957600080fd5b506101a2610618565b6040516101af9190611c8e565b60405180910390f35b3480156101c457600080fd5b506101df60048036038101906101da9190611ce6565b6106aa565b6040516101ec9190611d54565b60405180910390f35b34801561020157600080fd5b5061021c60048036038101906102179190611d9b565b610729565b005b34801561022a57600080fd5b5061023361086d565b6040516102409190611dea565b60405180910390f35b34801561025557600080fd5b50610270600480360381019061026b9190611e05565b610884565b005b61028c60048036038101906102879190611e92565b610ba9565b005b34801561029a57600080fd5b506102a3610d57565b6040516102b09190611ece565b60405180910390f35b6102c1610d6b565b005b3480156102cf57600080fd5b506102ea60048036038101906102e59190611e05565b610dbc565b005b3480156102f857600080fd5b50610313600480360381019061030e9190611ce6565b610ddc565b6040516103209190611d54565b60405180910390f35b34801561033557600080fd5b50610350600480360381019061034b9190611ee9565b610dee565b60405161035d9190611dea565b60405180910390f35b34801561037257600080fd5b5061037b610ea7565b005b34801561038957600080fd5b50610392610ebb565b60405161039f9190611d54565b60405180910390f35b3480156103b457600080fd5b506103bd610ee5565b6040516103ca9190611c8e565b60405180910390f35b3480156103df57600080fd5b506103fa60048036038101906103f59190611f42565b610f77565b005b34801561040857600080fd5b506104116110ef565b60405161041e9190611dea565b60405180910390f35b34801561043357600080fd5b5061043c6110fe565b6040516104499190611ece565b60405180910390f35b34801561045e57600080fd5b50610479600480360381019061047491906120b7565b611112565b005b34801561048757600080fd5b506104a2600480360381019061049d9190611ce6565b611185565b6040516104af9190611c8e565b60405180910390f35b3480156104c457600080fd5b506104cd611224565b6040516104da9190611dea565b60405180910390f35b3480156104ef57600080fd5b5061050a60048036038101906105059190611ee9565b61122a565b6040516105179190611dea565b60405180910390f35b34801561052c57600080fd5b506105476004803603810190610542919061213a565b61123c565b6040516105549190611bda565b60405180910390f35b34801561056957600080fd5b50610584600480360381019061057f9190611ee9565b6112d0565b005b60006301ffc9a760e01b827bffffffffffffffffffffffffffffffffffffffffffffffffffffffff191614806105e157506380ac58cd60e01b827bffffffffffffffffffffffffffffffffffffffffffffffffffffffff1916145b806106115750635b5e139f60e01b827bffffffffffffffffffffffffffffffffffffffffffffffffffffffff1916145b9050919050565b606060028054610627906121a9565b80601f0160208091040260200160405190810160405280929190818152602001828054610653906121a9565b80156106a05780601f10610675576101008083540402835291602001916106a0565b820191906000526020600020905b81548152906001019060200180831161068357829003601f168201915b5050505050905090565b60006106b582611354565b6106eb576040517fcf4700e400000000000000000000000000000000000000000000000000000000815260040160405180910390fd5b6006600083815260200190815260200160002060000160009054906101000a900473ffffffffffffffffffffffffffffffffffffffff169050919050565b600061073482610ddc565b90508073ffffffffffffffffffffffffffffffffffffffff166107556113b3565b73ffffffffffffffffffffffffffffffffffffffff16146107b8576107818161077c6113b3565b61123c565b6107b7576040517fcfb3b94200000000000000000000000000000000000000000000000000000000815260040160405180910390fd5b5b826006600084815260200190815260200160002060000160006101000a81548173ffffffffffffffffffffffffffffffffffffffff021916908373ffffffffffffffffffffffffffffffffffffffff160217905550818373ffffffffffffffffffffffffffffffffffffffff168273ffffffffffffffffffffffffffffffffffffffff167f8c5be1e5ebec7d5bd14f71427d1e84f3dd0314c0f7b2291e5b200ac8c7c3b92560405160405180910390a4505050565b60006108776113bb565b6001546000540303905090565b600061088f826113c0565b90508373ffffffffffffffffffffffffffffffffffffffff168173ffffffffffffffffffffffffffffffffffffffff16146108f6576040517fa114810000000000000000000000000000000000000000000000000000000000815260040160405180910390fd5b6000806109028461148e565b9150915061091881876109136113b3565b6114b5565b6109645761092d866109286113b3565b61123c565b610963576040517f59c896be00000000000000000000000000000000000000000000000000000000815260040160405180910390fd5b5b600073ffffffffffffffffffffffffffffffffffffffff168573ffffffffffffffffffffffffffffffffffffffff1614156109cb576040517fea553b3400000000000000000000000000000000000000000000000000000000815260040160405180910390fd5b6109d886868660016114f9565b80156109e357600082555b600560008773ffffffffffffffffffffffffffffffffffffffff1673ffffffffffffffffffffffffffffffffffffffff168152602001908152602001600020600081546001900391905081905550600560008673ffffffffffffffffffffffffffffffffffffffff1673ffffffffffffffffffffffffffffffffffffffff1681526020019081526020016000206000815460010191905081905550610ab185610a8d8888876114ff565b7c020000000000000000000000000000000000000000000000000000000017611527565b600460008681526020019081526020016000208190555060007c020000000000000000000000000000000000000000000000000000000084161415610b39576000600185019050600060046000838152602001908152602001600020541415610b37576000548114610b36578360046000838152602001908152602001600020819055505b5b505b838573ffffffffffffffffffffffffffffffffffffffff168773ffffffffffffffffffffffffffffffffffffffff167fddf252ad1be2c89b69c2b068fc378daa952ba7f163c4a11628f55a4df523b3ef60405160405180910390a4610ba18686866001611552565b505050505050565b3373ffffffffffffffffffffffffffffffffffffffff163273ffffffffffffffffffffffffffffffffffffffff1614610c17576040517f08c379a0000000000000000000000000000000000000000000000000000000008152600401610c0e90612227565b60405180910390fd5b600860149054906101000a900461ffff1661ffff168161ffff16610c3a33611558565b610c449190612276565b1115610c85576040517f08c379a0000000000000000000000000000000000000000000000000000000008152600401610c7c90612318565b60405180910390fd5b8061ffff16600954610c979190612338565b341015610cd9576040517f08c379a0000000000000000000000000000000000000000000000000000000008152600401610cd0906123de565b60405180910390fd5b600860169054906101000a900461ffff1661ffff168161ffff16610cfb6115af565b610d059190612276565b1115610d46576040517f08c379a0000000000000000000000000000000000000000000000000000000008152600401610d3d9061244a565b60405180910390fd5b610d54338261ffff166115c2565b50565b600860169054906101000a900461ffff1681565b610d7361177f565b3373ffffffffffffffffffffffffffffffffffffffff166108fc479081150290604051600060405180830381858888f19350505050158015610db9573d6000803e3d6000fd5b50565b610dd783838360405180602001604052806000815250611112565b505050565b6000610de7826113c0565b9050919050565b60008073ffffffffffffffffffffffffffffffffffffffff168273ffffffffffffffffffffffffffffffffffffffff161415610e56576040517f8f4eb60400000000000000000000000000000000000000000000000000000000815260040160405180910390fd5b67ffffffffffffffff600560008473ffffffffffffffffffffffffffffffffffffffff1673ffffffffffffffffffffffffffffffffffffffff16815260200190815260200160002054169050919050565b610eaf61177f565b610eb960006117fd565b565b6000600860009054906101000a900473ffffffffffffffffffffffffffffffffffffffff16905090565b606060038054610ef4906121a9565b80601f0160208091040260200160405190810160405280929190818152602001828054610f20906121a9565b8015610f6d5780601f10610f4257610100808354040283529160200191610f6d565b820191906000526020600020905b815481529060010190602001808311610f5057829003601f168201915b5050505050905090565b610f7f6113b3565b73ffffffffffffffffffffffffffffffffffffffff168273ffffffffffffffffffffffffffffffffffffffff161415610fe4576040517fb06307db00000000000000000000000000000000000000000000000000000000815260040160405180910390fd5b8060076000610ff16113b3565b73ffffffffffffffffffffffffffffffffffffffff1673ffffffffffffffffffffffffffffffffffffffff16815260200190815260200160002060008473ffffffffffffffffffffffffffffffffffffffff1673ffffffffffffffffffffffffffffffffffffffff16815260200190815260200160002060006101000a81548160ff0219169083151502179055508173ffffffffffffffffffffffffffffffffffffffff1661109e6113b3565b73ffffffffffffffffffffffffffffffffffffffff167f17307eab39ab6107e8899845ad3d59bd9653f200f220920489ca2b5937696c31836040516110e39190611bda565b60405180910390a35050565b60006110f96115af565b905090565b600860149054906101000a900461ffff1681565b61111d848484610884565b60008373ffffffffffffffffffffffffffffffffffffffff163b1461117f57611148848484846118c3565b61117e576040517fd1a57ed600000000000000000000000000000000000000000000000000000000815260040160405180910390fd5b5b50505050565b606061119082611354565b6111c6576040517fa14c4b5000000000000000000000000000000000000000000000000000000000815260040160405180910390fd5b60006111d0611a23565b90506000815114156111f1576040518060200160405280600081525061121c565b806111fb84611ab5565b60405160200161120c9291906124a6565b6040516020818303038152906040525b915050919050565b60095481565b600061123582611558565b9050919050565b6000600760008473ffffffffffffffffffffffffffffffffffffffff1673ffffffffffffffffffffffffffffffffffffffff16815260200190815260200160002060008373ffffffffffffffffffffffffffffffffffffffff1673ffffffffffffffffffffffffffffffffffffffff16815260200190815260200160002060009054906101000a900460ff16905092915050565b6112d861177f565b600073ffffffffffffffffffffffffffffffffffffffff168173ffffffffffffffffffffffffffffffffffffffff161415611348576040517f08c379a000000000000000000000000000000000000000000000000000000000815260040161133f9061253c565b60405180910390fd5b611351816117fd565b50565b60008161135f6113bb565b1115801561136e575060005482105b80156113ac575060007c0100000000000000000000000000000000000000000000000000000000600460008581526020019081526020016000205416145b9050919050565b600033905090565b600090565b600080829050806113cf6113bb565b11611457576000548110156114565760006004600083815260200190815260200160002054905060007c010000000000000000000000000000000000000000000000000000000082161415611454575b600081141561144a57600460008360019003935083815260200190815260200160002054905061141f565b8092505050611489565b505b5b6040517fdf2d9b4200000000000000000000000000000000000000000000000000000000815260040160405180910390fd5b919050565b60008060006006600085815260200190815260200160002090508092508254915050915091565b600073ffffffffffffffffffffffffffffffffffffffff8316925073ffffffffffffffffffffffffffffffffffffffff821691508382148383141790509392505050565b50505050565b60008060e883901c905060e8611516868684611b05565b62ffffff16901b9150509392505050565b600073ffffffffffffffffffffffffffffffffffffffff83169250814260a01b178317905092915050565b50505050565b600067ffffffffffffffff6040600560008573ffffffffffffffffffffffffffffffffffffffff1673ffffffffffffffffffffffffffffffffffffffff16815260200190815260200160002054901c169050919050565b60006115b96113bb565b60005403905090565b6000805490506000821415611603576040517fb562e8dd00000000000000000000000000000000000000000000000000000000815260040160405180910390fd5b61161060008483856114f9565b600160406001901b178202600560008573ffffffffffffffffffffffffffffffffffffffff1673ffffffffffffffffffffffffffffffffffffffff168152602001908152602001600020600082825401925050819055506116878361167860008660006114ff565b61168185611b0e565b17611527565b6004600083815260200190815260200160002081905550600080838301905073ffffffffffffffffffffffffffffffffffffffff85169150828260007fddf252ad1be2c89b69c2b068fc378daa952ba7f163c4a11628f55a4df523b3ef600080a4600183015b81811461172857808360007fddf252ad1be2c89b69c2b068fc378daa952ba7f163c4a11628f55a4df523b3ef600080a46001810190506116ed565b506000821415611764576040517f2e07630000000000000000000000000000000000000000000000000000000000815260040160405180910390fd5b80600081905550505061177a6000848385611552565b505050565b611787611b1e565b73ffffffffffffffffffffffffffffffffffffffff166117a5610ebb565b73ffffffffffffffffffffffffffffffffffffffff16146117fb576040517f08c379a00000000000000000000000000000000000000000000000000000000081526004016117f2906125a8565b60405180910390fd5b565b6000600860009054906101000a900473ffffffffffffffffffffffffffffffffffffffff16905081600860006101000a81548173ffffffffffffffffffffffffffffffffffffffff021916908373ffffffffffffffffffffffffffffffffffffffff1602179055508173ffffffffffffffffffffffffffffffffffffffff168173ffffffffffffffffffffffffffffffffffffffff167f8be0079c531659141344cd1fd0a4f28419497f9722a3daafe3b4186f6b6457e060405160405180910390a35050565b60008373ffffffffffffffffffffffffffffffffffffffff1663150b7a026118e96113b3565b8786866040518563ffffffff1660e01b815260040161190b949392919061261d565b602060405180830381600087803b15801561192557600080fd5b505af192505050801561195657506040513d601f19601f82011682018060405250810190611953919061267e565b60015b6119d0573d8060008114611986576040519150601f19603f3d011682016040523d82523d6000602084013e61198b565b606091505b506000815114156119c8576040517fd1a57ed600000000000000000000000000000000000000000000000000000000815260040160405180910390fd5b805181602001fd5b63150b7a0260e01b7bffffffffffffffffffffffffffffffffffffffffffffffffffffffff1916817bffffffffffffffffffffffffffffffffffffffffffffffffffffffff191614915050949350505050565b6060600a8054611a32906121a9565b80601f0160208091040260200160405190810160405280929190818152602001828054611a5e906121a9565b8015611aab5780601f10611a8057610100808354040283529160200191611aab565b820191906000526020600020905b815481529060010190602001808311611a8e57829003601f168201915b5050505050905090565b606060806040510190508060405280825b600115611af157600183039250600a81066030018353600a8104905080611aec57611af1565b611ac6565b508181036020830392508083525050919050565b60009392505050565b60006001821460e11b9050919050565b600033905090565b6000604051905090565b600080fd5b600080fd5b60007fffffffff0000000000000000000000000000000000000000000000000000000082169050919050565b611b6f81611b3a565b8114611b7a57600080fd5b50565b600081359050611b8c81611b66565b92915050565b600060208284031215611ba857611ba7611b30565b5b6000611bb684828501611b7d565b91505092915050565b60008115159050919050565b611bd481611bbf565b82525050565b6000602082019050611bef6000830184611bcb565b92915050565b600081519050919050565b600082825260208201905092915050565b60005b83811015611c2f578082015181840152602081019050611c14565b83811115611c3e576000848401525b50505050565b6000601f19601f8301169050919050565b6000611c6082611bf5565b611c6a8185611c00565b9350611c7a818560208601611c11565b611c8381611c44565b840191505092915050565b60006020820190508181036000830152611ca88184611c55565b905092915050565b6000819050919050565b611cc381611cb0565b8114611cce57600080fd5b50565b600081359050611ce081611cba565b92915050565b600060208284031215611cfc57611cfb611b30565b5b6000611d0a84828501611cd1565b91505092915050565b600073ffffffffffffffffffffffffffffffffffffffff82169050919050565b6000611d3e82611d13565b9050919050565b611d4e81611d33565b82525050565b6000602082019050611d696000830184611d45565b92915050565b611d7881611d33565b8114611d8357600080fd5b50565b600081359050611d9581611d6f565b92915050565b60008060408385031215611db257611db1611b30565b5b6000611dc085828601611d86565b9250506020611dd185828601611cd1565b9150509250929050565b611de481611cb0565b82525050565b6000602082019050611dff6000830184611ddb565b92915050565b600080600060608486031215611e1e57611e1d611b30565b5b6000611e2c86828701611d86565b9350506020611e3d86828701611d86565b9250506040611e4e86828701611cd1565b9150509250925092565b600061ffff82169050919050565b611e6f81611e58565b8114611e7a57600080fd5b50565b600081359050611e8c81611e66565b92915050565b600060208284031215611ea857611ea7611b30565b5b6000611eb684828501611e7d565b91505092915050565b611ec881611e58565b82525050565b6000602082019050611ee36000830184611ebf565b92915050565b600060208284031215611eff57611efe611b30565b5b6000611f0d84828501611d86565b91505092915050565b611f1f81611bbf565b8114611f2a57600080fd5b50565b600081359050611f3c81611f16565b92915050565b60008060408385031215611f5957611f58611b30565b5b6000611f6785828601611d86565b9250506020611f7885828601611f2d565b9150509250929050565b600080fd5b600080fd5b7f4e487b7100000000000000000000000000000000000000000000000000000000600052604160045260246000fd5b611fc482611c44565b810181811067ffffffffffffffff82111715611fe357611fe2611f8c565b5b80604052505050565b6000611ff6611b26565b90506120028282611fbb565b919050565b600067ffffffffffffffff82111561202257612021611f8c565b5b61202b82611c44565b9050602081019050919050565b82818337600083830152505050565b600061205a61205584612007565b611fec565b90508281526020810184848401111561207657612075611f87565b5b612081848285612038565b509392505050565b600082601f83011261209e5761209d611f82565b5b81356120ae848260208601612047565b91505092915050565b600080600080608085870312156120d1576120d0611b30565b5b60006120df87828801611d86565b94505060206120f087828801611d86565b935050604061210187828801611cd1565b925050606085013567ffffffffffffffff81111561212257612121611b35565b5b61212e87828801612089565b91505092959194509250565b6000806040838503121561215157612150611b30565b5b600061215f85828601611d86565b925050602061217085828601611d86565b9150509250929050565b7f4e487b7100000000000000000000000000000000000000000000000000000000600052602260045260246000fd5b600060028204905060018216806121c157607f821691505b602082108114156121d5576121d461217a565b5b50919050565b7f5468652063616c6c657220697320616e6f7468657220636f6e74726163740000600082015250565b6000612211601e83611c00565b915061221c826121db565b602082019050919050565b6000602082019050818103600083015261224081612204565b9050919050565b7f4e487b7100000000000000000000000000000000000000000000000000000000600052601160045260246000fd5b600061228182611cb0565b915061228c83611cb0565b9250827fffffffffffffffffffffffffffffffffffffffffffffffffffffffffffffffff038211156122c1576122c0612247565b5b828201905092915050565b7f45786365646564206d6178206d696e74206c696d697400000000000000000000600082015250565b6000612302601683611c00565b915061230d826122cc565b602082019050919050565b60006020820190508181036000830152612331816122f5565b9050919050565b600061234382611cb0565b915061234e83611cb0565b9250817fffffffffffffffffffffffffffffffffffffffffffffffffffffffffffffffff048311821515161561238757612386612247565b5b828202905092915050565b7f4e6f7420656e6f756768204554482073656e7400000000000000000000000000600082015250565b60006123c8601383611c00565b91506123d382612392565b602082019050919050565b600060208201905081810360008301526123f7816123bb565b9050919050565b7f52656163686564206d617820737570706c790000000000000000000000000000600082015250565b6000612434601283611c00565b915061243f826123fe565b602082019050919050565b6000602082019050818103600083015261246381612427565b9050919050565b600081905092915050565b600061248082611bf5565b61248a818561246a565b935061249a818560208601611c11565b80840191505092915050565b60006124b28285612475565b91506124be8284612475565b91508190509392505050565b7f4f776e61626c653a206e6577206f776e657220697320746865207a65726f206160008201527f6464726573730000000000000000000000000000000000000000000000000000602082015250565b6000612526602683611c00565b9150612531826124ca565b604082019050919050565b6000602082019050818103600083015261255581612519565b9050919050565b7f4f776e61626c653a2063616c6c6572206973206e6f7420746865206f776e6572600082015250565b6000612592602083611c00565b915061259d8261255c565b602082019050919050565b600060208201905081810360008301526125c181612585565b9050919050565b600081519050919050565b600082825260208201905092915050565b60006125ef826125c8565b6125f981856125d3565b9350612609818560208601611c11565b61261281611c44565b840191505092915050565b60006080820190506126326000830187611d45565b61263f6020830186611d45565b61264c6040830185611ddb565b818103606083015261265e81846125e4565b905095945050505050565b60008151905061267881611b66565b92915050565b60006020828403121561269457612693611b30565b5b60006126a284828501612669565b9150509291505056fea26469706673582212203b7d95352813dc9d5c4f640a1f425063ca68deb6826ba3d448305390830805d764736f6c63430008090033a264697066735822122024886da68a3908b54753ede00055931f0d158c323733b836b0fc818a03ba05e064736f6c63430008090033",
  "linkReferences": {},
  "deployedLinkReferences": {}
}