{
  "_format": "hh-sol-artifact-1",
  "contractName": "NftMinter",
  "sourceName": "contracts/NftMinter.sol",
  "abi": [
    {
      "inputs": [],
      "stateMutability": "nonpayable",
      "type": "constructor"
    },
    {
      "anonymous": false,
      "inputs": [
        {
          "indexed": true,
          "internalType": "address",
          "name": "owner",
          "type": "address"
        },
        {
          "indexed": true,
          "internalType": "address",
          "name": "approved",
          "type": "address"
        },
        {
          "indexed": true,
          "internalType": "uint256",
          "name": "tokenId",
          "type": "uint256"
        }
      ],
      "name": "Approval",
      "type": "event"
    },
    {
      "anonymous": false,
      "inputs": [
        {
          "indexed": true,
          "internalType": "address",
          "name": "owner",
          "type": "address"
        },
        {
          "indexed": true,
          "internalType": "address",
          "name": "operator",
          "type": "address"
        },
        {
          "indexed": false,
          "internalType": "bool",
          "name": "approved",
          "type": "bool"
        }
      ],
      "name": "ApprovalForAll",
      "type": "event"
    },
    {
      "anonymous": false,
      "inputs": [
        {
          "indexed": true,
          "internalType": "address",
          "name": "from",
          "type": "address"
        },
        {
          "indexed": true,
          "internalType": "address",
          "name": "to",
          "type": "address"
        },
        {
          "indexed": true,
          "internalType": "uint256",
          "name": "tokenId",
          "type": "uint256"
        }
      ],
      "name": "Transfer",
      "type": "event"
    },
    {
      "inputs": [
        {
          "internalType": "address",
          "name": "to",
          "type": "address"
        },
        {
          "internalType": "uint256",
          "name": "tokenId",
          "type": "uint256"
        }
      ],
      "name": "approve",
      "outputs": [],
      "stateMutability": "nonpayable",
      "type": "function"
    },
    {
      "inputs": [
        {
          "internalType": "address",
          "name": "owner",
          "type": "address"
        }
      ],
      "name": "balanceOf",
      "outputs": [
        {
          "internalType": "uint256",
          "name": "",
          "type": "uint256"
        }
      ],
      "stateMutability": "view",
      "type": "function"
    },
    {
      "inputs": [
        {
          "internalType": "uint256",
          "name": "_tokenId",
          "type": "uint256"
        }
      ],
      "name": "burn",
      "outputs": [],
      "stateMutability": "nonpayable",
      "type": "function"
    },
    {
      "inputs": [
        {
          "internalType": "uint256",
          "name": "tokenId",
          "type": "uint256"
        }
      ],
      "name": "getApproved",
      "outputs": [
        {
          "internalType": "address",
          "name": "",
          "type": "address"
        }
      ],
      "stateMutability": "view",
      "type": "function"
    },
    {
      "inputs": [
        {
          "internalType": "address",
          "name": "owner",
          "type": "address"
        },
        {
          "internalType": "address",
          "name": "operator",
          "type": "address"
        }
      ],
      "name": "isApprovedForAll",
      "outputs": [
        {
          "internalType": "bool",
          "name": "",
          "type": "bool"
        }
      ],
      "stateMutability": "view",
      "type": "function"
    },
    {
      "inputs": [
        {
          "internalType": "string",
          "name": "metadataURI",
          "type": "string"
        }
      ],
      "name": "mint",
      "outputs": [],
      "stateMutability": "nonpayable",
      "type": "function"
    },
    {
      "inputs": [],
      "name": "name",
      "outputs": [
        {
          "internalType": "string",
          "name": "",
          "type": "string"
        }
      ],
      "stateMutability": "view",
      "type": "function"
    },
    {
      "inputs": [
        {
          "internalType": "uint256",
          "name": "tokenId",
          "type": "uint256"
        }
      ],
      "name": "ownerOf",
      "outputs": [
        {
          "internalType": "address",
          "name": "",
          "type": "address"
        }
      ],
      "stateMutability": "view",
      "type": "function"
    },
    {
      "inputs": [
        {
          "internalType": "address",
          "name": "from",
          "type": "address"
        },
        {
          "internalType": "address",
          "name": "to",
          "type": "address"
        },
        {
          "internalType": "uint256",
          "name": "tokenId",
          "type": "uint256"
        }
      ],
      "name": "safeTransferFrom",
      "outputs": [],
      "stateMutability": "nonpayable",
      "type": "function"
    },
    {
      "inputs": [
        {
          "internalType": "address",
          "name": "from",
          "type": "address"
        },
        {
          "internalType": "address",
          "name": "to",
          "type": "address"
        },
        {
          "internalType": "uint256",
          "name": "tokenId",
          "type": "uint256"
        },
        {
          "internalType": "bytes",
          "name": "data",
          "type": "bytes"
        }
      ],
      "name": "safeTransferFrom",
      "outputs": [],
      "stateMutability": "nonpayable",
      "type": "function"
    },
    {
      "inputs": [
        {
          "internalType": "address",
          "name": "operator",
          "type": "address"
        },
        {
          "internalType": "bool",
          "name": "approved",
          "type": "bool"
        }
      ],
      "name": "setApprovalForAll",
      "outputs": [],
      "stateMutability": "nonpayable",
      "type": "function"
    },
    {
      "inputs": [
        {
          "internalType": "bytes4",
          "name": "interfaceId",
          "type": "bytes4"
        }
      ],
      "name": "supportsInterface",
      "outputs": [
        {
          "internalType": "bool",
          "name": "",
          "type": "bool"
        }
      ],
      "stateMutability": "view",
      "type": "function"
    },
    {
      "inputs": [],
      "name": "symbol",
      "outputs": [
        {
          "internalType": "string",
          "name": "",
          "type": "string"
        }
      ],
      "stateMutability": "view",
      "type": "function"
    },
    {
      "inputs": [
        {
          "internalType": "uint256",
          "name": "tokenId",
          "type": "uint256"
        }
      ],
      "name": "tokenURI",
      "outputs": [
        {
          "internalType": "string",
          "name": "",
          "type": "string"
        }
      ],
      "stateMutability": "view",
      "type": "function"
    },
    {
      "inputs": [
        {
          "internalType": "address",
          "name": "from",
          "type": "address"
        },
        {
          "internalType": "address",
          "name": "to",
          "type": "address"
        },
        {
          "internalType": "uint256",
          "name": "tokenId",
          "type": "uint256"
        }
      ],
      "name": "transferFrom",
      "outputs": [],
      "stateMutability": "nonpayable",
      "type": "function"
    }
  ],
  "bytecode": "0x60806040523480156200001157600080fd5b506040518060400160405280600f81526020017f45746844617368626f6172644e465400000000000000000000000000000000008152506040518060400160405280600581526020017f45444e4654000000000000000000000000000000000000000000000000000000815250816000908051906020019062000096929190620000b8565b508060019080519060200190620000af929190620000b8565b505050620001cd565b828054620000c69062000197565b90600052602060002090601f016020900481019282620000ea576000855562000136565b82601f106200010557805160ff191683800117855562000136565b8280016001018555821562000136579182015b828111156200013557825182559160200191906001019062000118565b5b50905062000145919062000149565b5090565b5b80821115620001645760008160009055506001016200014a565b5090565b7f4e487b7100000000000000000000000000000000000000000000000000000000600052602260045260246000fd5b60006002820490506001821680620001b057607f821691505b60208210811415620001c757620001c662000168565b5b50919050565b612add80620001dd6000396000f3fe608060405234801561001057600080fd5b50600436106100f55760003560e01c80636352211e11610097578063b88d4fde11610066578063b88d4fde14610282578063c87b56dd1461029e578063d85d3d27146102ce578063e985e9c5146102ea576100f5565b80636352211e146101e857806370a082311461021857806395d89b4114610248578063a22cb46514610266576100f5565b8063095ea7b3116100d3578063095ea7b31461017857806323b872dd1461019457806342842e0e146101b057806342966c68146101cc576100f5565b806301ffc9a7146100fa57806306fdde031461012a578063081812fc14610148575b600080fd5b610114600480360381019061010f9190611afd565b61031a565b6040516101219190611b45565b60405180910390f35b6101326103fc565b60405161013f9190611bf9565b60405180910390f35b610162600480360381019061015d9190611c51565b61048e565b60405161016f9190611cbf565b60405180910390f35b610192600480360381019061018d9190611d06565b6104d4565b005b6101ae60048036038101906101a99190611d46565b6105ec565b005b6101ca60048036038101906101c59190611d46565b61064c565b005b6101e660048036038101906101e19190611c51565b61066c565b005b61020260048036038101906101fd9190611c51565b610678565b60405161020f9190611cbf565b60405180910390f35b610232600480360381019061022d9190611d99565b61072a565b60405161023f9190611dd5565b60405180910390f35b6102506107e2565b60405161025d9190611bf9565b60405180910390f35b610280600480360381019061027b9190611e1c565b610874565b005b61029c60048036038101906102979190611f91565b61088a565b005b6102b860048036038101906102b39190611c51565b6108ec565b6040516102c59190611bf9565b60405180910390f35b6102e860048036038101906102e39190612074565b6109ff565b005b61030460048036038101906102ff91906120c1565b610a74565b6040516103119190611b45565b60405180910390f35b60007f80ac58cd000000000000000000000000000000000000000000000000000000007bffffffffffffffffffffffffffffffffffffffffffffffffffffffff1916827bffffffffffffffffffffffffffffffffffffffffffffffffffffffff191614806103e557507f5b5e139f000000000000000000000000000000000000000000000000000000007bffffffffffffffffffffffffffffffffffffffffffffffffffffffff1916827bffffffffffffffffffffffffffffffffffffffffffffffffffffffff1916145b806103f557506103f482610b08565b5b9050919050565b60606000805461040b90612130565b80601f016020809104026020016040519081016040528092919081815260200182805461043790612130565b80156104845780601f1061045957610100808354040283529160200191610484565b820191906000526020600020905b81548152906001019060200180831161046757829003601f168201915b5050505050905090565b600061049982610b72565b6004600083815260200190815260200160002060009054906101000a900473ffffffffffffffffffffffffffffffffffffffff169050919050565b60006104df82610678565b90508073ffffffffffffffffffffffffffffffffffffffff168373ffffffffffffffffffffffffffffffffffffffff161415610550576040517f08c379a0000000000000000000000000000000000000000000000000000000008152600401610547906121d4565b60405180910390fd5b8073ffffffffffffffffffffffffffffffffffffffff1661056f610bbd565b73ffffffffffffffffffffffffffffffffffffffff16148061059e575061059d81610598610bbd565b610a74565b5b6105dd576040517f08c379a00000000000000000000000000000000000000000000000000000000081526004016105d490612266565b60405180910390fd5b6105e78383610bc5565b505050565b6105fd6105f7610bbd565b82610c7e565b61063c576040517f08c379a0000000000000000000000000000000000000000000000000000000008152600401610633906122f8565b60405180910390fd5b610647838383610d13565b505050565b6106678383836040518060200160405280600081525061088a565b505050565b61067581610f7a565b50565b6000806002600084815260200190815260200160002060009054906101000a900473ffffffffffffffffffffffffffffffffffffffff169050600073ffffffffffffffffffffffffffffffffffffffff168173ffffffffffffffffffffffffffffffffffffffff161415610721576040517f08c379a000000000000000000000000000000000000000000000000000000000815260040161071890612364565b60405180910390fd5b80915050919050565b60008073ffffffffffffffffffffffffffffffffffffffff168273ffffffffffffffffffffffffffffffffffffffff16141561079b576040517f08c379a0000000000000000000000000000000000000000000000000000000008152600401610792906123f6565b60405180910390fd5b600360008373ffffffffffffffffffffffffffffffffffffffff1673ffffffffffffffffffffffffffffffffffffffff168152602001908152602001600020549050919050565b6060600180546107f190612130565b80601f016020809104026020016040519081016040528092919081815260200182805461081d90612130565b801561086a5780601f1061083f5761010080835404028352916020019161086a565b820191906000526020600020905b81548152906001019060200180831161084d57829003601f168201915b5050505050905090565b61088661087f610bbd565b8383610fcd565b5050565b61089b610895610bbd565b83610c7e565b6108da576040517f08c379a00000000000000000000000000000000000000000000000000000000081526004016108d1906122f8565b60405180910390fd5b6108e68484848461113a565b50505050565b60606108f782610b72565b600060066000848152602001908152602001600020805461091790612130565b80601f016020809104026020016040519081016040528092919081815260200182805461094390612130565b80156109905780601f1061096557610100808354040283529160200191610990565b820191906000526020600020905b81548152906001019060200180831161097357829003601f168201915b5050505050905060006109a1611196565b90506000815114156109b75781925050506109fa565b6000825111156109ec5780826040516020016109d4929190612452565b604051602081830303815290604052925050506109fa565b6109f5846111ad565b925050505b919050565b6000610a0b6007611215565b9050610a173382611223565b610a658184848080601f016020809104026020016040519081016040528093929190818152602001838380828437600081840152601f19601f82011690508083019250505050505050611241565b610a6f60076112b5565b505050565b6000600560008473ffffffffffffffffffffffffffffffffffffffff1673ffffffffffffffffffffffffffffffffffffffff16815260200190815260200160002060008373ffffffffffffffffffffffffffffffffffffffff1673ffffffffffffffffffffffffffffffffffffffff16815260200190815260200160002060009054906101000a900460ff16905092915050565b60007f01ffc9a7000000000000000000000000000000000000000000000000000000007bffffffffffffffffffffffffffffffffffffffffffffffffffffffff1916827bffffffffffffffffffffffffffffffffffffffffffffffffffffffff1916149050919050565b610b7b816112cb565b610bba576040517f08c379a0000000000000000000000000000000000000000000000000000000008152600401610bb190612364565b60405180910390fd5b50565b600033905090565b816004600083815260200190815260200160002060006101000a81548173ffffffffffffffffffffffffffffffffffffffff021916908373ffffffffffffffffffffffffffffffffffffffff160217905550808273ffffffffffffffffffffffffffffffffffffffff16610c3883610678565b73ffffffffffffffffffffffffffffffffffffffff167f8c5be1e5ebec7d5bd14f71427d1e84f3dd0314c0f7b2291e5b200ac8c7c3b92560405160405180910390a45050565b600080610c8a83610678565b90508073ffffffffffffffffffffffffffffffffffffffff168473ffffffffffffffffffffffffffffffffffffffff161480610ccc5750610ccb8185610a74565b5b80610d0a57508373ffffffffffffffffffffffffffffffffffffffff16610cf28461048e565b73ffffffffffffffffffffffffffffffffffffffff16145b91505092915050565b8273ffffffffffffffffffffffffffffffffffffffff16610d3382610678565b73ffffffffffffffffffffffffffffffffffffffff1614610d89576040517f08c379a0000000000000000000000000000000000000000000000000000000008152600401610d80906124e8565b60405180910390fd5b600073ffffffffffffffffffffffffffffffffffffffff168273ffffffffffffffffffffffffffffffffffffffff161415610df9576040517f08c379a0000000000000000000000000000000000000000000000000000000008152600401610df09061257a565b60405180910390fd5b610e04838383611337565b610e0f600082610bc5565b6001600360008573ffffffffffffffffffffffffffffffffffffffff1673ffffffffffffffffffffffffffffffffffffffff1681526020019081526020016000206000828254610e5f91906125c9565b925050819055506001600360008473ffffffffffffffffffffffffffffffffffffffff1673ffffffffffffffffffffffffffffffffffffffff1681526020019081526020016000206000828254610eb691906125fd565b92505081905550816002600083815260200190815260200160002060006101000a81548173ffffffffffffffffffffffffffffffffffffffff021916908373ffffffffffffffffffffffffffffffffffffffff160217905550808273ffffffffffffffffffffffffffffffffffffffff168473ffffffffffffffffffffffffffffffffffffffff167fddf252ad1be2c89b69c2b068fc378daa952ba7f163c4a11628f55a4df523b3ef60405160405180910390a4610f7583838361133c565b505050565b610f8381611341565b6000600660008381526020019081526020016000208054610fa390612130565b905014610fca57600660008281526020019081526020016000206000610fc991906119ae565b5b50565b8173ffffffffffffffffffffffffffffffffffffffff168373ffffffffffffffffffffffffffffffffffffffff16141561103c576040517f08c379a00000000000000000000000000000000000000000000000000000000081526004016110339061269f565b60405180910390fd5b80600560008573ffffffffffffffffffffffffffffffffffffffff1673ffffffffffffffffffffffffffffffffffffffff16815260200190815260200160002060008473ffffffffffffffffffffffffffffffffffffffff1673ffffffffffffffffffffffffffffffffffffffff16815260200190815260200160002060006101000a81548160ff0219169083151502179055508173ffffffffffffffffffffffffffffffffffffffff168373ffffffffffffffffffffffffffffffffffffffff167f17307eab39ab6107e8899845ad3d59bd9653f200f220920489ca2b5937696c318360405161112d9190611b45565b60405180910390a3505050565b611145848484610d13565b6111518484848461145e565b611190576040517f08c379a000000000000000000000000000000000000000000000000000000000815260040161118790612731565b60405180910390fd5b50505050565b606060405180602001604052806000815250905090565b60606111b882610b72565b60006111c2611196565b905060008151116111e2576040518060200160405280600081525061120d565b806111ec846115f5565b6040516020016111fd929190612452565b6040516020818303038152906040525b915050919050565b600081600001549050919050565b61123d828260405180602001604052806000815250611756565b5050565b61124a826112cb565b611289576040517f08c379a0000000000000000000000000000000000000000000000000000000008152600401611280906127c3565b60405180910390fd5b806006600084815260200190815260200160002090805190602001906112b09291906119ee565b505050565b6001816000016000828254019250508190555050565b60008073ffffffffffffffffffffffffffffffffffffffff166002600084815260200190815260200160002060009054906101000a900473ffffffffffffffffffffffffffffffffffffffff1673ffffffffffffffffffffffffffffffffffffffff1614159050919050565b505050565b505050565b600061134c82610678565b905061135a81600084611337565b611365600083610bc5565b6001600360008373ffffffffffffffffffffffffffffffffffffffff1673ffffffffffffffffffffffffffffffffffffffff16815260200190815260200160002060008282546113b591906125c9565b925050819055506002600083815260200190815260200160002060006101000a81549073ffffffffffffffffffffffffffffffffffffffff021916905581600073ffffffffffffffffffffffffffffffffffffffff168273ffffffffffffffffffffffffffffffffffffffff167fddf252ad1be2c89b69c2b068fc378daa952ba7f163c4a11628f55a4df523b3ef60405160405180910390a461145a8160008461133c565b5050565b600061147f8473ffffffffffffffffffffffffffffffffffffffff166117b1565b156115e8578373ffffffffffffffffffffffffffffffffffffffff1663150b7a026114a8610bbd565b8786866040518563ffffffff1660e01b81526004016114ca9493929190612838565b602060405180830381600087803b1580156114e457600080fd5b505af192505050801561151557506040513d601f19601f820116820180604052508101906115129190612899565b60015b611598573d8060008114611545576040519150601f19603f3d011682016040523d82523d6000602084013e61154a565b606091505b50600081511415611590576040517f08c379a000000000000000000000000000000000000000000000000000000000815260040161158790612731565b60405180910390fd5b805181602001fd5b63150b7a0260e01b7bffffffffffffffffffffffffffffffffffffffffffffffffffffffff1916817bffffffffffffffffffffffffffffffffffffffffffffffffffffffff1916149150506115ed565b600190505b949350505050565b6060600082141561163d576040518060400160405280600181526020017f30000000000000000000000000000000000000000000000000000000000000008152509050611751565b600082905060005b6000821461166f578080611658906128c6565b915050600a82611668919061293e565b9150611645565b60008167ffffffffffffffff81111561168b5761168a611e66565b5b6040519080825280601f01601f1916602001820160405280156116bd5781602001600182028036833780820191505090505b5090505b6000851461174a576001826116d691906125c9565b9150600a856116e5919061296f565b60306116f191906125fd565b60f81b818381518110611707576117066129a0565b5b60200101907effffffffffffffffffffffffffffffffffffffffffffffffffffffffffffff1916908160001a905350600a85611743919061293e565b94506116c1565b8093505050505b919050565b61176083836117d4565b61176d600084848461145e565b6117ac576040517f08c379a00000000000000000000000000000000000000000000000000000000081526004016117a390612731565b60405180910390fd5b505050565b6000808273ffffffffffffffffffffffffffffffffffffffff163b119050919050565b600073ffffffffffffffffffffffffffffffffffffffff168273ffffffffffffffffffffffffffffffffffffffff161415611844576040517f08c379a000000000000000000000000000000000000000000000000000000000815260040161183b90612a1b565b60405180910390fd5b61184d816112cb565b1561188d576040517f08c379a000000000000000000000000000000000000000000000000000000000815260040161188490612a87565b60405180910390fd5b61189960008383611337565b6001600360008473ffffffffffffffffffffffffffffffffffffffff1673ffffffffffffffffffffffffffffffffffffffff16815260200190815260200160002060008282546118e991906125fd565b92505081905550816002600083815260200190815260200160002060006101000a81548173ffffffffffffffffffffffffffffffffffffffff021916908373ffffffffffffffffffffffffffffffffffffffff160217905550808273ffffffffffffffffffffffffffffffffffffffff16600073ffffffffffffffffffffffffffffffffffffffff167fddf252ad1be2c89b69c2b068fc378daa952ba7f163c4a11628f55a4df523b3ef60405160405180910390a46119aa6000838361133c565b5050565b5080546119ba90612130565b6000825580601f106119cc57506119eb565b601f0160209004906000526020600020908101906119ea9190611a74565b5b50565b8280546119fa90612130565b90600052602060002090601f016020900481019282611a1c5760008555611a63565b82601f10611a3557805160ff1916838001178555611a63565b82800160010185558215611a63579182015b82811115611a62578251825591602001919060010190611a47565b5b509050611a709190611a74565b5090565b5b80821115611a8d576000816000905550600101611a75565b5090565b6000604051905090565b600080fd5b600080fd5b60007fffffffff0000000000000000000000000000000000000000000000000000000082169050919050565b611ada81611aa5565b8114611ae557600080fd5b50565b600081359050611af781611ad1565b92915050565b600060208284031215611b1357611b12611a9b565b5b6000611b2184828501611ae8565b91505092915050565b60008115159050919050565b611b3f81611b2a565b82525050565b6000602082019050611b5a6000830184611b36565b92915050565b600081519050919050565b600082825260208201905092915050565b60005b83811015611b9a578082015181840152602081019050611b7f565b83811115611ba9576000848401525b50505050565b6000601f19601f8301169050919050565b6000611bcb82611b60565b611bd58185611b6b565b9350611be5818560208601611b7c565b611bee81611baf565b840191505092915050565b60006020820190508181036000830152611c138184611bc0565b905092915050565b6000819050919050565b611c2e81611c1b565b8114611c3957600080fd5b50565b600081359050611c4b81611c25565b92915050565b600060208284031215611c6757611c66611a9b565b5b6000611c7584828501611c3c565b91505092915050565b600073ffffffffffffffffffffffffffffffffffffffff82169050919050565b6000611ca982611c7e565b9050919050565b611cb981611c9e565b82525050565b6000602082019050611cd46000830184611cb0565b92915050565b611ce381611c9e565b8114611cee57600080fd5b50565b600081359050611d0081611cda565b92915050565b60008060408385031215611d1d57611d1c611a9b565b5b6000611d2b85828601611cf1565b9250506020611d3c85828601611c3c565b9150509250929050565b600080600060608486031215611d5f57611d5e611a9b565b5b6000611d6d86828701611cf1565b9350506020611d7e86828701611cf1565b9250506040611d8f86828701611c3c565b9150509250925092565b600060208284031215611daf57611dae611a9b565b5b6000611dbd84828501611cf1565b91505092915050565b611dcf81611c1b565b82525050565b6000602082019050611dea6000830184611dc6565b92915050565b611df981611b2a565b8114611e0457600080fd5b50565b600081359050611e1681611df0565b92915050565b60008060408385031215611e3357611e32611a9b565b5b6000611e4185828601611cf1565b9250506020611e5285828601611e07565b9150509250929050565b600080fd5b600080fd5b7f4e487b7100000000000000000000000000000000000000000000000000000000600052604160045260246000fd5b611e9e82611baf565b810181811067ffffffffffffffff82111715611ebd57611ebc611e66565b5b80604052505050565b6000611ed0611a91565b9050611edc8282611e95565b919050565b600067ffffffffffffffff821115611efc57611efb611e66565b5b611f0582611baf565b9050602081019050919050565b82818337600083830152505050565b6000611f34611f2f84611ee1565b611ec6565b905082815260208101848484011115611f5057611f4f611e61565b5b611f5b848285611f12565b509392505050565b600082601f830112611f7857611f77611e5c565b5b8135611f88848260208601611f21565b91505092915050565b60008060008060808587031215611fab57611faa611a9b565b5b6000611fb987828801611cf1565b9450506020611fca87828801611cf1565b9350506040611fdb87828801611c3c565b925050606085013567ffffffffffffffff811115611ffc57611ffb611aa0565b5b61200887828801611f63565b91505092959194509250565b600080fd5b600080fd5b60008083601f84011261203457612033611e5c565b5b8235905067ffffffffffffffff81111561205157612050612014565b5b60208301915083600182028301111561206d5761206c612019565b5b9250929050565b6000806020838503121561208b5761208a611a9b565b5b600083013567ffffffffffffffff8111156120a9576120a8611aa0565b5b6120b58582860161201e565b92509250509250929050565b600080604083850312156120d8576120d7611a9b565b5b60006120e685828601611cf1565b92505060206120f785828601611cf1565b9150509250929050565b7f4e487b7100000000000000000000000000000000000000000000000000000000600052602260045260246000fd5b6000600282049050600182168061214857607f821691505b6020821081141561215c5761215b612101565b5b50919050565b7f4552433732313a20617070726f76616c20746f2063757272656e74206f776e6560008201527f7200000000000000000000000000000000000000000000000000000000000000602082015250565b60006121be602183611b6b565b91506121c982612162565b604082019050919050565b600060208201905081810360008301526121ed816121b1565b9050919050565b7f4552433732313a20617070726f76652063616c6c6572206973206e6f7420746f60008201527f6b656e206f776e6572206e6f7220617070726f76656420666f7220616c6c0000602082015250565b6000612250603e83611b6b565b915061225b826121f4565b604082019050919050565b6000602082019050818103600083015261227f81612243565b9050919050565b7f4552433732313a2063616c6c6572206973206e6f7420746f6b656e206f776e6560008201527f72206e6f7220617070726f766564000000000000000000000000000000000000602082015250565b60006122e2602e83611b6b565b91506122ed82612286565b604082019050919050565b60006020820190508181036000830152612311816122d5565b9050919050565b7f4552433732313a20696e76616c696420746f6b656e2049440000000000000000600082015250565b600061234e601883611b6b565b915061235982612318565b602082019050919050565b6000602082019050818103600083015261237d81612341565b9050919050565b7f4552433732313a2061646472657373207a65726f206973206e6f74206120766160008201527f6c6964206f776e65720000000000000000000000000000000000000000000000602082015250565b60006123e0602983611b6b565b91506123eb82612384565b604082019050919050565b6000602082019050818103600083015261240f816123d3565b9050919050565b600081905092915050565b600061242c82611b60565b6124368185612416565b9350612446818560208601611b7c565b80840191505092915050565b600061245e8285612421565b915061246a8284612421565b91508190509392505050565b7f4552433732313a207472616e736665722066726f6d20696e636f72726563742060008201527f6f776e6572000000000000000000000000000000000000000000000000000000602082015250565b60006124d2602583611b6b565b91506124dd82612476565b604082019050919050565b60006020820190508181036000830152612501816124c5565b9050919050565b7f4552433732313a207472616e7366657220746f20746865207a65726f2061646460008201527f7265737300000000000000000000000000000000000000000000000000000000602082015250565b6000612564602483611b6b565b915061256f82612508565b604082019050919050565b6000602082019050818103600083015261259381612557565b9050919050565b7f4e487b7100000000000000000000000000000000000000000000000000000000600052601160045260246000fd5b60006125d482611c1b565b91506125df83611c1b565b9250828210156125f2576125f161259a565b5b828203905092915050565b600061260882611c1b565b915061261383611c1b565b9250827fffffffffffffffffffffffffffffffffffffffffffffffffffffffffffffffff038211156126485761264761259a565b5b828201905092915050565b7f4552433732313a20617070726f766520746f2063616c6c657200000000000000600082015250565b6000612689601983611b6b565b915061269482612653565b602082019050919050565b600060208201905081810360008301526126b88161267c565b9050919050565b7f4552433732313a207472616e7366657220746f206e6f6e20455243373231526560008201527f63656976657220696d706c656d656e7465720000000000000000000000000000602082015250565b600061271b603283611b6b565b9150612726826126bf565b604082019050919050565b6000602082019050818103600083015261274a8161270e565b9050919050565b7f45524337323155524953746f726167653a2055524920736574206f66206e6f6e60008201527f6578697374656e7420746f6b656e000000000000000000000000000000000000602082015250565b60006127ad602e83611b6b565b91506127b882612751565b604082019050919050565b600060208201905081810360008301526127dc816127a0565b9050919050565b600081519050919050565b600082825260208201905092915050565b600061280a826127e3565b61281481856127ee565b9350612824818560208601611b7c565b61282d81611baf565b840191505092915050565b600060808201905061284d6000830187611cb0565b61285a6020830186611cb0565b6128676040830185611dc6565b818103606083015261287981846127ff565b905095945050505050565b60008151905061289381611ad1565b92915050565b6000602082840312156128af576128ae611a9b565b5b60006128bd84828501612884565b91505092915050565b60006128d182611c1b565b91507fffffffffffffffffffffffffffffffffffffffffffffffffffffffffffffffff8214156129045761290361259a565b5b600182019050919050565b7f4e487b7100000000000000000000000000000000000000000000000000000000600052601260045260246000fd5b600061294982611c1b565b915061295483611c1b565b9250826129645761296361290f565b5b828204905092915050565b600061297a82611c1b565b915061298583611c1b565b9250826129955761299461290f565b5b828206905092915050565b7f4e487b7100000000000000000000000000000000000000000000000000000000600052603260045260246000fd5b7f4552433732313a206d696e7420746f20746865207a65726f2061646472657373600082015250565b6000612a05602083611b6b565b9150612a10826129cf565b602082019050919050565b60006020820190508181036000830152612a34816129f8565b9050919050565b7f4552433732313a20746f6b656e20616c7265616479206d696e74656400000000600082015250565b6000612a71601c83611b6b565b9150612a7c82612a3b565b602082019050919050565b60006020820190508181036000830152612aa081612a64565b905091905056fea264697066735822122044ee6e7c0684a4b7d9513af42dd1c0c8426426687ca06941e358621bdc0ca80d64736f6c63430008090033",
  "linkReferences": {},
  "deployedLinkReferences": {}
}